:10000000803102288731D92F73087204710470047B
:1000100003190B280C280E288030F3060800430132
:1000200049084001EF00430148084001EE00430148
:1000300047084001ED00430146084001EC005F081D
:10004000EF005E08EE005D08ED005C08EC006C0857
:10005000E0006D08E1006E08E2006F08E300173071
:10006000E336E20CE10CE00C890B3028FF30600530
:10007000E40000306105E5006408813EEA00FF30DD
:10008000653DEB006B08803AE00080306002031DA4
:100090004B2817306A02031C4E284F285028F92895
:1000A0004001EB1B54285528B228FF30E000FF30F8
:1000B000E1007F30E2000030E3006A0A6328E337A2
:1000C000E20CE10CE00C890B5F286308E900620890
:1000D000E8006108E7006008E6006C086605E000DB
:1000E0006D086705E1006E086805E2006F086905A4
:1000F000E3006308620461046004031D8028812812
:1001000082284F286C08E0006D08E1006E08E200CC
:100110006F08E3001F30E336E20CE10CE00C890BC2
:100120008B286308620461046004031998289928E5
:10013000A1286608EC076708ED3D6808EE3D6908F0
:10014000EF3D6609E0006709E1006809E20069091E
:10015000E3006008EC056108ED056208EE05630840
:10016000EF05F1286C08E0006D08E1006E08E20080
:100170006F08E3001F30E336E20CE10CE00C890B62
:10018000BB286308620461046004031DC828C928F1
:10019000D2280030EF000030EE000030ED000030DB
:1001A000EC00F1286C08E0006D08E1006E08E20048
:1001B0006F08E3000130E035E10DE20DE30D890B3E
:1001C000DB2863086204610460040319E828E92855
:1001D000F128BF30EF008030EE000030ED0000303D
:1001E000EC006F08DF006E08DE006D08DD006C08B3
:1001F000DC0008004101C500C301C4012308D90087
:100200002208D8002108D7002008D600590840014C
:10021000C500410158084001C40041015708400190
:10022000C300410156084001C2000030C90000303F
:10023000C8000030C7000030C6008831052080317A
:100240000318232924293D2901304101C30000302E
:10025000C4005908F3005808F2005708F100560886
:10026000F00080310420803173084101D900720808
:10027000D8007108D7007008D6004101DC01DD010B
:10028000420140084101CA0042013F084101C90042
:1002900043084404031D4D294E2953294201431D9F
:1002A000522953297129410143084404031D592946
:1002B0005A295F292B30AD000030AE0063292D3064
:1002C000AD000030AE002D08A50025084401A000B7
:1002D00001304101DC070030DD3DFF30C907FF3050
:1002E000CA3D41015908F3005808F2005708F100CF
:1002F0005608F00093315223803170037104031DBE
:1003000082298329D52941012408BF3EA500FF3059
:1003100003180030A600003026021A300319250207
:10032000031C93299529013096290030A700A801C4
:100330002708AF002808B0002F0830040319A129AE
:10034000A229AC297530F000A030F1005C08203EF5
:100350009D3106258031B5297D30F000A030F100B7
:100360005C08203E9D3106258031FD304101C907E2
:10037000FF30CA3D2030A50025084001A4004101FE
:100380004A084001A600410149084001A500410179
:1003900045089131CB218031400125084101A10060
:1003A000400124084101A000D82F41015908F30061
:1003B0005808F2005708F1005608F0009331522314
:1003C000803170087104031DE629E729392A4101AB
:1003D0002408BF3EA500FF3003180030A6000030FF
:1003E00026021A3003192502031CF729F9290130C6
:1003F000FA290030A700A8012708B1002808B20098
:10040000310832040319052A062A102A7930F0002F
:10041000A030F1005C08203E9D3106258031192A6C
:100420008130F000A030F1005C08203E9D310625AF
:100430008031FD304101C907FF30CA3D2030A500A1
:1004400025084001A40041014A084001A6004101DD
:1004500049084001A500410145089131CB21803177
:10046000400125084101A100400124084101A000EC
:10047000D82F3F304101E1008030E0000030DF0044
:100480000030DE00DA01DB015908F3005808F20001
:100490005708F1005608F0000030F7000030F60071
:1004A0000030F5000030F40090317D2080310318D9
:1004B0005A2A5B2A1F2B8C2A41304001AB00203086
:1004C000AA000030A9000030A800410161084001E5
:1004D000AF00410160084001AE0041015F084001EA
:1004E000AD0041015E084001AC008A31CF2280316D
:1004F00040012B084101E10040012A084101E000D0
:10050000400129084101DF00400128084101DE00C7
:100510000130DA070030DB3D410159084001C500D8
:10052000410158084001C400410157084001C3007F
:10053000410156084001C2004130AB002030AA0002
:100540000030A9000030A800410161084001AF005F
:10055000410160084001AE0041015F084001AD006B
:1005600041015E084001AC008A31CF228031400158
:100570002B08C9002A08C8002908C7002808C60097
:100580008831052080310318C62AC72A5C2AF82A38
:1005900041304001C5002030C4000030C3000030AD
:1005A000C200410161084001C900410160084001E9
:1005B000C80041015F084001C70041015E084001D9
:1005C000C60096314C268031400145084101E100CA
:1005D000400144084101E000400143084101DF00BF
:1005E000400142084101DE00FF30DA07FF30DB3D09
:1005F000410159084001C500410158084001C400AB
:10060000410157084001C300410156084001C200A2
:10061000410161084001C900410160084001C80072
:1006200041015F084001C70041015E084001C6006A
:10063000883105208031031C1E2B1F2BC82A410145
:100640002408A500A6012508F6002608F7009D311C
:100650008F25803176084101A7002708CB004B0881
:10066000A5002508C80067304B06031D382B392B21
:10067000622B420141084204031D3F2B402B442BB7
:100680000130C1000030C2004208803A4101A5009B
:1006900080302502031D4F2B013042014102031817
:1006A000522B532B592B06304101C6000030C70096
:1006B000682B420142084101C70042014108410143
:1006C000C600682B4201C21B662B672B532B592B8C
:1006D00067304B06031D6D2B6E2B9B2B5B08803AFE
:1006E000A5007F302502031D772BFC305A02031C26
:1006F0007A2B7B2B962B41014608FF3EA500FF304D
:10070000473DA6002608803AA7005B08803A2702EA
:10071000031D8C2B5A082502031C8F2B902B962B24
:1007200066304101A5002508C8009B2B65304101BA
:10073000A5002508C8004708BE004608BD00673070
:100740004B06031DA42BA52BAF2B66304806031DBB
:10075000AA2BAB2BB32BDB1FAE2BAF2BB32B013054
:10076000BD070030BE3D66304806031DB82BB92BCF
:10077000D12BDB1FBC2BBD2BC72B3F30E1008030C2
:10078000E0000030DF000030DE00DA01DB0167301E
:100790004B060319CC2BCD2BD12B5A08BD075B0878
:1007A000BE3DD401D5015908CF005808CE005708E6
:1007B000CD005608CC006108AC006008AB005F08B3
:1007C000AA005E08A900B12C410161084001C500E2
:1007D000410160084001C40041015F084001C300BD
:1007E00041015E084001C20041014F084001C900BB
:1007F00041014E084001C80041014D084001C700B9
:1008000041014C084001C60096314C268031400120
:100810004508DF004408DE004308DD004208DC0034
:1008200080310F20803140015F084101D300400139
:100830005E084101D20040015D084101D100400144
:100840005C084101D0005308F3005208F20051083F
:10085000F1005008F0009231DE2280317108410130
:10086000C2007008C10053084001AF0041015208A6
:100870004001AE00410151084001AD004101500866
:100880004001AC00410161084001AB00410160083A
:100890004001AA0041015F084001A90041015E0832
:1008A0004001A8008A31CF22803140012B08DF00AF
:1008B0002A08DE002908DD002808DC0041014F0875
:1008C0004001E30041014E084001E20041014D08B2
:1008D0004001E10041014C084001E0009C31C52489
:1008E000803140015F084101CF0040015E084101B5
:1008F000CE0040015D084101CD0040015C0841018E
:10090000CC0041304001C5002030C4000030C3009D
:100910000030C200410161084001C9004101600886
:100920004001C80041015F084001C70041015E0865
:100930004001C60096314C268031400145084101F6
:10094000E100400144084101E00040014308410149
:10095000DF00400142084101DE000130D4070030D1
:10096000D53D5508803AA5003E08803A2502031D72
:10097000BB2C3D085402031CBE2CBF2CE42B403082
:100980004001AB00A030AA000030A9000030A80050
:10099000410161084001AF00410160084001AE0023
:1009A00041015F084001AD0041015E084001AC001B
:1009B0008A31CF22803140012B084101D300400110
:1009C0002A084101D200400129084101D10040011B
:1009D00028084101D0004F084001C50041014E08E0
:1009E0004001C40041014D084001C30041014C08D1
:1009F0004001C200410153084001C90041015208B1
:100A00004001C800410151084001C70041015008A0
:100A10004001C6008831052080310318102D112DAA
:100A20001B2D00304101D3000030D2000030D10036
:100A30000030D000402D41014F08F3004E08F20075
:100A40004D08F1004C08F0005308F7005208F6007A
:100A50005108F5005008F40090317D208031031CCE
:100A6000322D332D402D41014118372D382D402D89
:100A70000030D3000030D2000030D1000030D00070
:100A800041015308F3005208F2005108F1005008E8
:100A9000F0005908F7005808F6005708F500560806
:100AA000F40088319020803173084101CF00720832
:100AB000CE007108CD007008CC002C08E1002B0896
:100AC000E0002A08DF002908DE0065304806031927
:100AD0006A2D6B2D702D5B08C0005A08BF00722D67
:100AE000BF01C001BB01BC01B901BA01D401D501EC
:100AF000B32E410161084001C50041016008400179
:100B0000C40041015F084001C30041015E0840018B
:100B1000C20041014F084001C90041014E08400197
:100B2000C80041014D084001C70041014C08400187
:100B3000C60096314C26803140014508DF0044084C
:100B4000DE004308DD004208DC0080310F208031E8
:100B500040015F084101D30040015E084101D2001D
:100B600040015D084101D10040015C084101D00015
:100B70005308F3005208F2005108F1005008F00049
:100B80009231DE22803171084101C2007008C1003B
:100B90004201431ACC2DCD2DE32D410141084204E1
:100BA000031DD32DD42DE32D67304B06031DD92D06
:100BB000DA2DE32DC01FDD2DDE2DE32D0130B90729
:100BC0000030BA3D312E41013B083C04031DE92DA4
:100BD000EA2D192EC01FED2DEE2D192E2E30A50059
:100BE0005C08203E86000230870025088100013025
:100BF000DC070030DD3DFF30C907FF30CA3D013062
:100C0000BB000030BC00192E3030A5005C08203E2F
:100C1000860002308700250881000130DC070030A3
:100C2000DD3DFF30C907FF30CA3DFF30B907FF3057
:100C3000BA3D39083A04031D1E2E1F2E042E41080A
:100C4000303EA5005C08203E860002308700250863
:100C500081000130DC070030DD3DFF30C907FF3087
:100C6000CA3D53084001AF00410152084001AE00A7
:100C7000410151084001AD00410150084001AC0064
:100C8000410161084001AB00410160084001AA0038
:100C900041015F084001A90041015E084001A80030
:100CA0008A31CF22803140012B08DF002A08DE0084
:100CB0002908DD002808DC0041014F084001E3005D
:100CC00041014E084001E20041014D084001E100B0
:100CD00041014C084001E0009C31C52480314001B5
:100CE0005F084101CF0040015E084101CE00400194
:100CF0005D084101CD0040015C084101CC0041305C
:100D00004001C5002030C4000030C3000030C200E4
:100D1000410161084001C900410160084001C8006B
:100D200041015F084001C70041015E084001C60063
:100D300096314C268031400145084101E1004001D7
:100D400044084101E000400143084101DF00400147
:100D500042084101DE00FF30BF07FF30C03D0130D7
:100D6000D4070030D53D5508803AA5003E08803AAA
:100D70002502031DBD2E3D0854020318C02EC12EAE
:100D8000CF2E41015D08803AA50080302502031D69
:100D9000CB2E4B305C02031CCE2ECF2E792D410181
:100DA0003B083C04031DD52ED62EE92E4201431EDE
:100DB000DA2EDB2EE92E2E304101A5005C08203E04
:100DC000860002308700250881000130DC070030F2
:100DD000DD3D41015C08203E860002308700810134
:100DE00065304806031DF52EF62EBD2F4F30D4007A
:100DF0000030D5005408203E860002308700810173
:100E0000C301C401DB1F052F062F0F2F0130C300C4
:100E10000030C400DA09DB09DA0A0319DB0A023000
:100E2000C6000030C700472FFF304101D407FF3014
:100E3000D53D0A30F0000030F1005B08F3005A089D
:100E4000F2009031CB2080317008303E4101A50086
:100E50005408203E860002308700250881000A30B1
:100E6000F0000030F1005B08F3005A08F200923104
:100E70007F22803171084101DB007008DA00FF3009
:100E8000C607FF30C73DFF30C907FF30CA3D5A08CB
:100E90005B04031D4C2F4D2F142F4708803AA500EB
:100EA00080302502031D562F013046020318592FAA
:100EB0005A2F142FFF304101D407FF30D53D43088E
:100EC0004404031D642F652F6A2F2B30B3000030BC
:100ED000B4006E2F2D30B3000030B4003308A500ED
:100EE0005408203E86000230870025088100FF302C
:100EF000C907FF30CA3DFF30D407FF30D53D240875
:100F0000BF3EA500FF3003180030A60000302602C7
:100F10001A3003192502031C8E2F902F0130912FB8
:100F20000030A700A8012708B7002808B800370834
:100F30003804031D9C2F9D2FA22F6530B500003073
:100F4000B600A62F4530B5000030B6003508A50024
:100F50005408203E86000230870025088100FF30BB
:100F6000C907FF30CA3D5408203EF0000230F100AE
:100F70005C08203E9D310625803120304101A500CE
:100F800025084001A40041014A084001A600410192
:100F900049084001A500410145089131CB2180312C
:100FA000400125084101A100400124084101A000A1
:100FB0000800B43084009D308500A03086000130E8
:100FC000870026309B311823873120308400013080
:100FD00085002C309B3112238731C63084000130CC
:100FE000850014309B311223873120308400023079
:100FF000850050309B3112238731400195312C2DD3
:1010000000309D31492588310800003040014205FB
:10101000CA0000304305CB0080304405CC007F304F
:101020004505CD004D084C044B044A04031D192806
:101030001A2822280030C5000030C4000030C30048
:101040000030C20000304605CA0000304705CB0022
:1010500080304805CC007F304905CD004D084C0458
:101060004B044A04031D352836283E280030C900A9
:101070000030C8000030C7000030C600C51F41283E
:1010800042285A280030CA000030CB000030CC0083
:101090008030CD004208CA024308CB3B4408CC3B19
:1010A0004508CD3B4D08C5004C08C4004B08C300A3
:1010B0004A08C200C91F5D285E2876280030CA0091
:1010C0000030CB000030CC008030CD004608CA0292
:1010D0004708CB3B4808CC3B4908CD3B4D08C900ED
:1010E0004C08C8004B08C7004A08C6008030C50637
:1010F0008030C90649084502031D88284808440273
:10110000031D882847084302031D88284608420219
:1011100003188B288C288E2803108F2803140800AE
:10112000730880394001A0002008F8007335A00042
:101130002008FA00F21F9D289E289F287A147A081A
:101140000319A328A428B4287A0A031DA828A928CB
:10115000B1280030F3000030F2000030F100003020
:10116000F000F217F301BC280030F3000030F20069
:101170000030F1000030F00077088039A00020082E
:10118000F900790878060319C628C728C8287817EF
:101190007735A0002008F900F61FCF28D028D128E5
:1011A000791479080319D528D628E628790A031D69
:1011B000DA28DB28E3280030F7000030F6000030A2
:1011C000F5000030F400F617F701EE280030F700C4
:1011D0000030F6000030F5000030F4007A087902A3
:1011E0000318F328F4283829781FF728F828FC2852
:1011F0008030A0002008F8067A08A0002008FB0034
:101200007908A0002008FA007B08A0002008F90057
:101210007008A0002008FB007408A0002008F0005F
:101220007B08A0002008F4007108A0002008FB0043
:101230007508A0002008F1007B08A0002008F50038
:101240007208A0002008FB007608A0002008F20029
:101250007B08A0002008F6007308A0002008FB000F
:101260007708A0002008F3007B08A0002008F70002
:10127000FB017908A000A1012108A3007A0820023F
:10128000A200031CA3032308803AA4008030240298
:10129000031D4C291A302202031C4F2950298A2988
:1012A0007308720471047004031D57295929013011
:1012B0005A2900304001A0002008FB000030F30054
:1012C0000030F2000030F1000030F0007908A0009A
:1012D0002008FA0090297B1C6E296F2976297B361D
:1012E00001384001A0002008FB0078290310FB0C06
:1012F000701C7B297C297D29FB1701304001A0004F
:10130000F337F20CF10CF00CA00B80290130A00097
:101310002008FA0779087A02031C8F2990296B2983
:10132000781B93299429CE297A08031D9829992995
:10133000A2290030F3000030F2000030F10000304C
:10134000F000CE2A7408F0077508F13D7608F23DEA
:101350007708F33D731CAD29AE295B2A7B1CB129AC
:10136000B229B9297B3601384001A0002008FB00D2
:10137000BB290310FB0C701CBE29BF29C029FB1719
:1013800001304001A000F337F20CF10CF00CA00B7F
:10139000C3290130A0002008FA075B2A7308803AAD
:1013A0004001A0007708803A2002031DE129760859
:1013B0007202031DE12975087102031DE1297408F9
:1013C00070020318E429E5291D2AFF30A000FF3030
:1013D000A100FF30A200FF30A30070087402A40037
:1013E0007108753BA5007208763BA6007308773B31
:1013F000A7002408A0072508A13D2608A23D27082C
:10140000A33D2308F3002208F2002108F100200880
:10141000F0008030A0002008F806FB09FB0A7B08DA
:10142000031D132A142A252A0130F0070030F13D4C
:101430000030F23D0030F33D252A7408F0027508B3
:10144000F13B7608F23B7708F33B730872047104B2
:101450007004031D2C2A2D2A572A7B08031D312ACC
:10146000322A572A0030F3000030F2000030F10039
:101470000030F000CE2A0130F035F10DF20DF30D01
:10148000890B3C2AFB1F452A462A472A70147B1CDD
:101490004A2A4B2A4E2A0314FB0D502A0310FB0D37
:1014A0007A080319542A552A572A0130FA02F21FE2
:1014B0005A2A5B2A3B2AF901FB1F5F2A602A6E2AFF
:1014C0007B087F390319652A662A692AF901F90A16
:1014D0006E2A701C6C2A6D2A6E2A662A79080319F6
:1014E000722A732AA12A0130F0070030F13D003042
:1014F000F23D0030F33D731C7E2A7F2AA12A70083A
:101500004001A0007108A1007208A2007308A300A6
:101510000130A400A337A20CA10CA00CA40B8A2AB2
:101520002308F3002208F2002108F1002008F0004F
:101530007A0A03199C2A9D2AA12A0130A0002008BA
:10154000FA077A0A0319A52AA62AAB2A7A08031DE4
:10155000AA2AAB2AB92A0030F3000030F20000308A
:10156000F1000030F0007A08031DB72AB82AB92A22
:10157000F8017A1CBC2ABD2ABF2AF217C42A7F3080
:101580004001A0002008F2057A364001A0002008A2
:10159000F300F81FCC2ACD2ACE2AF3170800400109
:1015A0002B088039B0003008B5002B35B00030086A
:1015B000BB00AA1FDC2ADD2ADE2A3B143B080319E4
:1015C000E22AE32AF22A3B0A031DE72AE82AF02A44
:1015D0000030AB000030AA000030A9000030A800A5
:1015E000AA17FA2A0030AB000030AA000030A90088
:1015F0000030A8002F088039B0003008B5062F351C
:10160000B0003008BA00AE1F062B072B082B3A1487
:101610003A0803190C2B0D2B1C2B3A0A031D112B16
:10162000122B1A2B0030AF000030AE000030AD009E
:101630000030AC00AE17242B0030AF000030AE00FD
:101640000030AD000030AC003A080319282B292BDC
:101650002E2B3B08031D2D2B2E2B372B0030AB00E0
:101660000030AA000030A9000030A800252D28086D
:10167000B0003008F0002E089D316C258A317108C9
:101680004001C1007008C0004008B000B101B201C3
:10169000B3013308B9003208B8003108B700300888
:1016A000B6004108B000B101B201B3013308BF0078
:1016B0003208BE003108BD003008BC002908B00067
:1016C0003008F0002D089D316C258A3171084001E9
:1016D000C1007008C0004008B000B101B201B30100
:1016E0003008B6073108B73D3208B83D3308B93D78
:1016F0004108B000B101B201B3013008BC073108A4
:10170000BD3D3208BE3D3308BF3D2A08B000300859
:10171000F0002C089D316C258A3171084001C10010
:101720007008C0004008B000B101B201B301300838
:10173000B6073108B73D3208B83D3308B93D410816
:10174000B000B101B201B3013008BC073108BD3DA2
:101750003208BE3D3308BF3D0830B635B70DB80D71
:10176000B90D890BAD2B2908B0003008F0002C080A
:101770009D316C258A3171084001C1007008C0009C
:101780004008B6074108B73D0030B83DB93D2808CC
:10179000B0003008F0002D089D316C258A317108A9
:1017A0004001C1007008C0004008B6074108B73DBD
:1017B0000030B83DB93D0830B635B70DB80DB90D9C
:1017C000890BDC2B2808B0003008F0002C089D3174
:1017D0006C258A3171084001C1007008C0004008C2
:1017E000B6074108B73D0030B83DB93D2908B00003
:1017F0003008F0002E089D316C258A3171084001B7
:10180000C1007008C0004008BC074108BD3D003061
:10181000BE3DBF3D2A08B0003008F0002D089D31C4
:101820006C258A3171084001C1007008C000400871
:10183000BC074108BD3D0030BE3DBF3D2A08B00099
:101840003008F0002E089D316C258A317108400166
:10185000C1007008C0004008B0004108B100B201EA
:10186000B3010830B035B10DB20DB30D890B322C78
:101870003008BC073108BD3D3208BE3D3308BF3DCE
:101880003608B0003708B1003808B2003908B30094
:101890001830B336B20CB10CB00C890B492C30089F
:1018A000BC073108BD3D3208BE3D3308BF3D08309E
:1018B000B635B70DB80DB90D890B582C3B083A0752
:1018C000B000B101B10D3008823EC000FF30313DA3
:1018D000C100812C0130BC35BD0DBE0DBF0D890B83
:1018E0006B2CB91F742C752C762C3C140130B6353A
:1018F000B70DB80DB90D890B772CFF30C007FF303D
:10190000C13DBE1F842C852C6A2CBA01B91F892CBD
:101910008A2CA62CFF303605B000FF303705B10009
:10192000FF303805B2007F303905B3003308320488
:101930003104300403199D2C9E2CA12CBA01BA0A43
:10194000A62C3C1CA42CA52CA62C9E2C3A080319D2
:10195000AA2CAB2CD32C0130BC070030BD3D00308D
:10196000BE3D0030BF3D3F1CB62CB72CD32C3C08ED
:10197000B0003D08B1003E08B2003F08B30001309E
:10198000B400B337B20CB10CB00CB40BC12C33089B
:10199000BF003208BE003108BD003008BC00013075
:1019A000C0070030C13D4108803AB00080303002AD
:1019B000031DDC2CFF304002031CDF2CE02CEA2C42
:1019C0007F304001BF008030BE000030BD000030DD
:1019D000BC00192D40014108803AB000803030022F
:1019E000031DF42C013040020318F72CF82C032DB2
:1019F00000304001BF000030BE000030BD000030AC
:101A0000BC00B501192D40014008B0003008BB00F2
:101A1000FF30BC05FF30BD057F30BE050030BF057F
:101A20003B1C132D142D152DBE173B36B00030086E
:101A3000BF003508B0003008BF043F08AB003E08C7
:101A4000AA003D08A9003C08A80008004201DA00ED
:101A500041016208860001308700403FE400413FB9
:101A6000E50064088400650885001200253A031D1E
:101A70003A2D3B2DD82F62088600013087000130B7
:101A8000810741310318810A4201BF01C001C3012E
:101A9000C401FF30C100FF30C200CC01CD01952D43
:101AA0004201431441016208860001308700013081
:101AB000810741310318810A952D4201C314522D2B
:101AC00042014315522D4201C315522D42014316C6
:101AD000522D01304201CC000030CD00952D410146
:101AE0006208860001308700403FE400413FE50086
:101AF00064088400650885000008E600E7016708BF
:101B0000003A0319842D692D6608203A0319632DC4
:101B1000033A0319662D083A0319602D063A031992
:101B2000502D1D3A03195D2D692D42014C084D04BD
:101B300003199B2D9C2D6F2D431C9F2DA02DA42D93
:101B4000FD30C305FF30C405410162088600013045
:101B50008700403FE400413FE500640884006508D9
:101B6000850012002E3A031DB62DB72D382E4201E6
:101B7000C101C201410162088600013087000130C5
:101B8000810741310318810A62088600013087000D
:101B9000403FE400413FE50064088400650885009B
:101BA00012002A3A031DD52DD62DEF2D620886008E
:101BB000013087000130810741310318810A630831
:101BC0008600013087000108840001308500023062
:101BD0008107003F4201C100013FC200382E620868
:101BE000860001308700403FF600413FF700943106
:101BF0007D248D3177084201C2007608C1000A2E8B
:101C000041016208860001308700013081074131BF
:101C10000318810A41016208860001308700403FB5
:101C2000E400413FE5006408840065088500000881
:101C3000D03EE600FF3003180030E70000306702B6
:101C40000A3003196602031C262E282E0130292E85
:101C50000030E800E90168084201CE00410169084E
:101C60004201CF004E084F04031D372E382E002EA0
:101C700041016208860001308700403FE400413F97
:101C8000E50064088400650885000008E600E701B7
:101C90006608F6006708F7009D318F258D317608BC
:101CA0004101E80068084201D60056080319592E80
:101CB0005A2E9F2E41016208860001308700403F66
:101CC000E400413FE5000130640784006508031823
:101CD000650A85000008E600E7016608F600670867
:101CE000F7009D318F258D3176084101E8006808A5
:101CF0004201D700570803197E2E7F2E9F2E4101E7
:101D00006208860001308700403FE400413FE50063
:101D100002306407840065080318650A850000081E
:101D2000E600E7016608F6006708F7009D318F2599
:101D30008D3176084101E80068084201D80066301C
:101D40005606031DA42EA52EF42E4101620886001E
:101D500001308700403FE400413FE5006408840013
:101D6000650885000008E60066084201D9004101C7
:101D70006208860001308700013081074131031875
:101D8000810A630886000130870001088400013061
:101D9000850004308107003F4201D200013FD3009B
:101DA000023FD400033FD50055084101A300420182
:101DB00054084101A200420153084101A10042011F
:101DC00052084101A000420159084101E4006408A1
:101DD000A40042015A088031FA208D3141012108C6
:101DE000E3002008E200FF2F8530F000A030F10072
:101DF0000230F2000030F3005630923124228D314F
:101E000070087104031D052F062F9D2F41016208E4
:101E1000860001308700403FE400413FE50001308B
:101E20006407840065080318650A85000008E60059
:101E300066084201D900410162088600013087002E
:101E4000403FE400413FE5006408840065088500E8
:101E50000008BF3EE600FF3003180030E700003006
:101E600067021A3003196602031C372F392F01301D
:101E70003A2F0030E800E90168084201D000410132
:101E800069084201D100500851040319482F492F15
:101E90005E2F41016308860001308700010884003D
:101EA0000130850004308107003F4201D200013F2C
:101EB000D300023FD400033FD500722F41016308D5
:101EC000860001308700010884000130850004305D
:101ED0008107003F4201D200013FD300023FD400FE
:101EE000033FD500410162088600013087000230BF
:101EF000810741310318810A420155084101A300BD
:101F0000420154084101A200420153084101A100CD
:101F1000420152084101A000420159084101E40078
:101F20006408A40042015A088031FA208D31410131
:101F30002108E3002008E200FF2F4101620886002B
:101F400001308700403FE400413FE5006408840021
:101F5000650885001200253A031DAF2FB02FCC2F46
:101F60006208860001308700013081074131031883
:101F7000810A2530F0000030F10042015A08410189
:101F8000E4006408F20091311E218D3101304101DD
:101F9000E2000030E300FF2F620886000130870076
:101FA0000130810741310318810AE201E301FF2F6B
:101FB0006208860001308700403FE400413FE500B1
:101FC00064088400650885000008E600E7016608EB
:101FD000F0006708F10042015A084101E800680872
:101FE000F20091311E218D314101620886000130DD
:101FF00087000130810741310318810AC62F08008C
:102000004E010F1508004201DB0041016B0842013F
:10201000DD0041016A084201DC00BD01BE01262845
:102020005C304101ED006D08E2006C08EE006E08C6
:10203000E30042015B088D312625903141016208A1
:102040004201BD07410163084201BE3D5C088400B6
:102050005D0885001200031D2E282F2810283E0839
:102060004101EB0042013D084101EA0008009A31BC
:10207000B7229031FA0042013708860087017A08BA
:1020800081000130FA007A08B7070130B802003049
:10209000B93B3808390403194E284F2854289A317F
:1020A000BE22903105307C28BC155E289A31EA2288
:1020B00090317C289A31E52290317C282C08FA0056
:1020C0007A08F90021088A0020080A009031FB00F4
:1020D000FC017C08003A03196E285A287B08013A53
:1020E00003195A28033A03195628013A03195628A6
:1020F000073A03195A285A28080000307005F800DA
:1021000000307105F90080307205FA007F307305E8
:10211000FB007B087A0479047804031D9028912839
:1021200099280030F3000030F2000030F100003058
:10213000F00000307405F80000307505F9008030BB
:102140007605FA007F307705FB007B087A04790476
:102150007804031DAC28AD28B5280030F700003006
:10216000F6000030F5000030F40077087306031D18
:10217000C32876087206031DC32875087106031D5F
:10218000C328740870060319C628C728C928031075
:10219000CA2803140800F601F31FCF28D028D72837
:1021A000F209F309F20A0319F30AF601F60AF11F1C
:1021B000DA28DB28E028F009F109F00A0319F10A0E
:1021C000700871040319E528E6280F29F501F50ABE
:1021D000F2280130F035F10D890BEA280130F400C6
:1021E0007408F507F11FF528F628E928710873022D
:1021F000031DFC2870087202031CFF280029042913
:102200007008F2027108F33B0130F136F00C890BD3
:1022100005290130F502031D0E290F29F62876083D
:102220000319132914291929F209F309F20A0319C8
:10223000F30A7308F1007208F0000800720803192D
:102240002229232928297208031D272928292D2915
:1022500070089A319A22913173297208033E8600E0
:10226000013087001600010403193729382957293E
:102270007208033E860001308700403FF300413F73
:10228000F400720A860001308700403FF500413FAC
:10229000F6007608803AF7007408803A7702031D4A
:1022A0005329730875020318562957297329700892
:1022B000F3007208860001308700720A8400013042
:1022C000850000080107F4007408860001308700CB
:1022D00073088100720A860001308700013081078F
:1022E00041310318810A08009B3106239131003ADD
:1022F00003197B297C29AD2989299A31CC22913176
:10230000CA299A31D1229131CA299A31DB229131DD
:10231000CA2942012F08FA007A08F9000630203E47
:10232000860001308700413F8A00403F0A0091311A
:10233000FB00FC017C08003A03199F2985297B08D2
:10234000013A03198529033A03197D29013A031932
:102350008129073A03198529852942013C10173044
:10236000203E860001308700403F84008501810ABD
:1023700000089A31C222913101304201B802003086
:10238000B93B38083904031DC629C729C9290630B5
:10239000CA29033008004001AB004201431CD12987
:1023A000D229DB2940012B08FC007C08F800240816
:1023B0009D31DA2591314001A61BDF29E029E5296D
:1023C0002608AA002508A900E729A901AA01A70152
:1023D000A801FB292030F0000030F10040012B085B
:1023E000FC007C08F20091311E2191310130400146
:1023F000A7070030A83D2808803AFC002A08803A48
:102400007C02031D052A29082702031C082A092A21
:10241000EA29420143180D2A0E2A172A40012B08E7
:10242000FC007C08F80024089D31DA259131400138
:1024300024089C3170249131400129087007A400C0
:102440002A08713DA5000800F5007508F40074081D
:10245000F8007108F7007008F6000130F202003051
:10246000F33B720A031D382A730A031D382A392ADE
:10247000482AF001F1017E2A0130F4007408F807BF
:102480000130F6070030F73D0130F2020030F33B37
:10249000780886000130870001080319502A512A64
:1024A000702A760884007708850012000319592ADB
:1024B0005A2A702A7208730403195F2A602A702A44
:1024C00076088400770885000008F4007808860004
:1024D000013087000108740603196F2A702A3C2A0C
:1024E0007808860001308700760884007708850028
:1024F00000080102F000F101031CF1030800F601DD
:10250000F11F832A842A8B2AF009F109F00A0319A2
:10251000F10AF601F60AF31F8E2A8F2A982AF20989
:10252000F309F20A0319F30A0130F4007408F606FD
:10253000F701F8017008710403199F2AA02ACF2A15
:10254000F501F50AAC2A0130F035F10D890BA42A0A
:102550000130F4007408F507F11FAF2AB02AA32A4E
:102560000130F735F80D890BB12A71087302031D8C
:10257000BB2A70087202031CBE2ABF2AC42A700834
:10258000F2027108F33B77140130F136F00C890B3D
:10259000C52A0130F502031DCE2ACF2AB02A7608BB
:1025A0000319D32AD42AD92AF709F809F70A0319F3
:1025B000F80A7808F1007708F00008000310720D9F
:1025C000730DF4007408FA007A08031DE82AE92A5A
:1025D000F22A0030F3000030F2000030F100003049
:1025E000F000512B7008F4007108F5007208F60035
:1025F0007308F7001F30F736F60CF50CF40C890B56
:10260000FB2A7408F8007808F900F217FF30F0058B
:10261000FF30F105FF30F2050030F3059630FA0285
:10262000FA1F132B142B2C2B7A08803A973E031891
:102630001A2B1B2B1C2BE92A0130F336F20CF10C60
:10264000F00C890B1D2B0130F4007408FA07031DF0
:102650002A2B2B2B1C2B412B20307A02031C312BD5
:10266000322B3C2BE92A0130F035F10DF20DF30D40
:10267000890B342B0130FA027A08031D402B412BC1
:10268000332B79080319452B462B512BF009F109FF
:10269000F209F309F00A0319F10A0319F20A0319FE
:1026A000F30A080043014D084001A50043014C080E
:1026B0004001A40043014B084001A30043014A0824
:1026C0004001A2007308A5007208A4007108A300CD
:1026D0007008A2002208F4002308F5002408F60080
:1026E0002508F7001730F736F60CF50CF40C890BBB
:1026F000732BFF307405A00000307505A100200881
:102700002104031D842B852BA62B2208F40023080B
:10271000F5002408F6002508F7000130F435F50D22
:10272000F60DF70D890B8E2B77087604750474046B
:10273000031D9B2B9C2BA12B0230F0000030F100DD
:10274000D02B0330F0000030F100D02B200A210400
:10275000031DAB2BAC2BCC2B2208F4002308F50077
:102760002408F6002508F7000930F435F50DF60DBC
:10277000F70D890BB52B77087604750474040319DB
:10278000C22BC42B0130C52B0030F800F9017808AA
:10279000F0007908F100D02B0430F0000030F10097
:1027A0000800F80078080319D62BD72BEB2BF31F62
:1027B000DA2BDB2BEB2B7009FA007109FB00720995
:1027C000FC007309FD00FA0A0319FB0A0319FC0A4D
:1027D0000319FD0AF32B7308FD007208FC00710851
:1027E000FB007008FA007308720471047004031D82
:1027F000FA2BFB2B042C0030F3000030F2000030E9
:10280000F1000030F0007C2C9630F4007408F900E0
:10281000142C0130F4007408F9070130FD36FC0C6B
:10282000FB0CFA0C890B0E2CFE307D05031D192CB8
:102830001A2C092C2E2C0130F4007408F9070130F1
:10284000FA070030FB3D0030FC3D0030FD3D01301B
:10285000FD36FC0CFB0CFA0C890B282CFF307D0597
:10286000031D332C342C1B2C3E2C0130F90201307B
:10287000FA35FB0DFC0DFD0D890B382CFC1B412C92
:10288000422C482C023079020318472C482C352C56
:1028900079184B2C4C2C542CFF30FA05FF30FB05DB
:1028A0007F30FC05FF30FD050310F90C7908F400BA
:1028B000F501F601F7011830F435F50DF60DF70DB9
:1028C000890B5C2C7408FA047508FB047608FC0478
:1028D0007708FD04780803196E2C6F2C742CF31FF5
:1028E000722C732C742CFD177D08F3007C08F20009
:1028F0007B08F1007A08F00008004001A701A80158
:10290000A001A101872C0130F6070030F73DA60198
:10291000A60A76088400770885001200203A031979
:10292000922C932CA82C7608840077088500000848
:10293000F73EF800FF3003180030F900003079024C
:10294000053003197802031CA62CA72CA82CA6017D
:102950002608F800F9017808A2007908A3002208E7
:102960002304031DB42CB52C832CBF2C0130A000F4
:102970000030A1000130F6070030F73DF32C760857
:102980008400770885000008F800F9017908003A0A
:102990000319CB2CF32C78082B3A0319BA2C063ADE
:1029A0000319B62CF32C76088400770885000008FC
:1029B000F8002808F1002708F0000A30F200003083
:1029C000F3009C31A62494317108FA007808700253
:1029D000F900031CFA037908303E4001A7000030DB
:1029E0007A3DA800BA2C7608840077088500000894
:1029F000D03EF800FF3003180030F90000307902B3
:102A00000A3003197802031C062D082D0130092D08
:102A10000030FA00FB017A08A4007B08A500240816
:102A20002504031D142D152DD32C20082104031D6E
:102A30001A2D1B2D272D2709F8002809F900F80A5F
:102A40000319F90A7808F6007908F7002B2D2808F1
:102A5000F7002708F60008009B31F8239531400164
:102A6000981268304201ED00E430890B352DED0BF2
:102A7000352D0000400198169F31C12795318030D7
:102A80009F3184279531BC309C31562495311530C7
:102A90004201EE004B30ED00BE30890B4D2DED0BA9
:102AA0004D2DEE0B4D2D00009A319F2295314E0198
:102AB000941C5B2D5C2D572D94109B313523953143
:102AC00073084301D9007208D8007108D700700854
:102AD000D6003D304001AB000030AA000030A90014
:102AE0000030A80043015908F3005808F2005708C5
:102AF000F1005608F00001309331D123953173086D
:102B00004001AF007208AE007108AD007008AC0063
:102B10008A31CF22953140012B08C5002A08C40014
:102B20002908C3002808C2004A30C9007A30C8000A
:102B30000030C7000030C60096314C269531400168
:102B400045084201CB00400144084201CA0040014F
:102B500043084201C900400142084201C800473011
:102B60004001AB00A830AA00C030A9000030A80086
:102B700042014B084001C50042014A084001C4001F
:102B8000420149084001C300420148084001C20017
:102B90004230C9000330C8001230C7006F30C60091
:102BA00096314C26953140014508DF004408DE008F
:102BB0004308DD004208DC003F30E3008030E200E3
:102BC0000030E1000030E0009C31C5249531400127
:102BD0005F08AF005E08AE005D08AD005C08AC00A9
:102BE0008A31CF22953140012B084301D1004001A9
:102BF0002A084301D000400129084301CF004001C9
:102C000028084301CE0067304201DE00A030DF001B
:102C10004B08E3004A08E2004908E1004808E000E8
:102C2000AE309E315726953180309F3184279531C3
:102C3000AE309C315624953158304201DE00A03030
:102C4000DF00430151084201E30043015008420103
:102C5000E20043014F084201E10043014E084201F6
:102C6000E000A0309E3157269531C0309F31842737
:102C70009531A0309C315624953129304201EE0027
:102C80009630ED007F30890B432EED0B432EEE0B7B
:102C9000432E542D80310228400149088039CA0052
:102CA0004A08D3004935CA004A08DA00C81F592E1D
:102CB0005A2E5B2E5A145A0803195F2E602E702E5E
:102CC0005A0A031D642E652E6D2E0030C900003097
:102CD000C8000030C7000030C600C817C901782EF0
:102CE0000030C9000030C8000030C7000030C60006
:102CF00045088039CA004A08D3064535CA004A0843
:102D0000DB00C41F842E852E862E5B145B080319FE
:102D10008A2E8B2E9B2E5B0A031D8F2E902E982EB3
:102D20000030C5000030C4000030C3000030C200D5
:102D3000C417C501A32E0030C5000030C400003008
:102D4000C3000030C2004508440443044204031D8C
:102D5000AA2EAB2EC42E0030C9000030C8000030AF
:102D6000C7000030C6008030C8047F30C904530853
:102D7000CA004A08C9044908C5004808C4004708F1
:102D8000C3004608C200FF2F5A08031DC82EC92ED3
:102D9000D22E0030C5000030C4000030C300003027
:102DA000C200FF2F5A08CA00CB014B08CD005B08B8
:102DB0004A02CC00031CCD034C087F3ED4000030F7
:102DC0004D3DD5004908D2004808D1004708D00041
:102DD0004608CF000030C9000030C8000030C700EE
:102DE0000030C6000030D9000030D8000030D700D5
:102DF0000030D600DB013A2F5B080319002F012FAA
:102E00001B2F0130CF35D00DD10DD20D890B022FE4
:102E10000130C635C70DC80DC90D890B092FD91F43
:102E2000122F132F142F46140130D635D70DD80D7D
:102E3000D90D890B152F45085202031D292F44086F
:102E40005102031D292F43085002031D292F420858
:102E50004F02031C2C2F2D2F362F59174208CF025B
:102E60004308D03B4408D13B4508D23B0130CA005F
:102E70004A08DB071A305B02031C3F2F402FFC2E51
:102E80005208510450044F040319472F482F612F53
:102E90005614612F0130C635C70DC80DC90D890BF9
:102EA0004B2FD91F542F552F562F46140130D6358E
:102EB000D70DD80DD90D890B572FFF30D407FF3010
:102EC000D53DC81F642F652F4A2FDB01D91F692FFD
:102ED0006A2F862FFF305605CA00FF305705CB00FA
:102EE000FF305805CC007F305905CD004D084C040B
:102EF0004B044A0403197D2F7E2F812FDB01DB0A4F
:102F0000862F461C842F852F862F7E2F5B08031962
:102F10008A2F8B2FB32F0130C6070030C73D0030FA
:102F2000C83D0030C93D491C962F972FB32F460846
:102F3000CA004708CB004808CC004908CD00013042
:102F4000CE00CD37CC0CCB0CCA0CCE0BA12F4D082C
:102F5000C9004C08C8004B08C7004A08C600013029
:102F6000D4070030D53D5508803ACA0080304A0267
:102F7000031DBC2FFF305402031CBF2FC02FCD2FC9
:102F8000FF304001D4000030D5000030C9000030CF
:102F9000C8000030C7000030C60040015508803A24
:102FA000CA0080304A02031DD72F01305402031893
:102FB000DA2FDB2FE72F4001D401D5010030C90003
:102FC0000030C8000030C7000030C600D301400107
:102FD0005408CA004A08DA005A1CEF2FF02FF22FCB
:102FE000C817F62F7F30CA004A08C8055A36CA00EB
:102FF0004A08C9005308CA004A08C904BB2E080081
:103534000800013008000530080049019917080007
:103544004E010F11080043019A1208004E0119118F
:10355400080043011B14080043019B1408004301A5
:103564001B15080043019B150800430116080800B9
:1035740043019B161B16080043019B121B160800EF
:10358400F00070084301960008004201BC10BB0122
:103594000E3008009A31AE229A31013008009A3177
:1035A400AE229A31023008009A31AE229A310130AB
:1035B40008009A31B1229A31003008009A31BE22B3
:1035C4009A31053008009A31BA229A310A3008003B
:1035D4009A31BA229A31093008004201BC10BB0169
:1035E4000E30080071084301D3007008D2000800AF
:1035F40071084201C6007008C50008007108430143
:10360400D5007008D400080043011B0E890C890CF6
:10361400013908004E010F1D102B112B0C2B080033
:10362400640080010131890B132B0034FE00120069
:103634001E00FE0B192B003442013C109A31B422B7
:103644009B31043008004F019601970198019901BC
:103654009A019B01080042013C1436359A31C2227A
:103664009B310330080049010F08F0001008F100F5
:103674001108F200F30108004301990108309A008F
:103684009B014F3097009A12080042013C14031426
:10369400360D9A31C2229B31053008002030510189
:1036A4008D008F019101023093009201101C5B2B5D
:1036B4005C2B582B08007608F1007508F000770899
:1036C400F8007808F20000309E3103269B31080090
:1036D400712B9B310C239B319E31B0269B314201CF
:1036E400BC18752B762B6B2B080043019A1A7B2B85
:1036F4007C2B832B990108309A009B014F30970053
:103704009A1608000630450190008F0191011F3080
:103714008D008C014E019010F03045018E000800A0
:10372400F3004201BC1D972B982BA12B7308F200C8
:103734007208B7007108B9007008B800BC1108001D
:103744000230F0000030F10079089B3192239B3164
:103754000030F500F600F7019B315D239B31043006
:1037640008000130F0000030F10079089B31922309
:103774009B310030F500F600F7019B315D239B314E
:10378400023008000230F0000030F10079089B316B
:1037940092239B310030F500F600F7019B315D2345
:1037A4009B31023008000130F0000030F10079084C
:1037B4009B3192239B310030F500F600F7019B31D9
:1037C4005D239B31043008008030490198000230A9
:1037D40099009A0101309B009D0103309C00FF3049
:1037E4009700FF309600FF30950008009B31252399
:1037F4009B319B313E239B319F3147279B319B312A
:1038040050239B319B31E6239B319B3184239B3195
:103814009D3127259B310800790886008701403FA8
:10382400F000413FF1007908023E8600870101085B
:103834009B3192239C310030F500F600F7019B3157
:103844005D239C31023008007008D03EF200FF3046
:10385400713DF300003073020A3003197202031C35
:10386400342C362C0130372C0030F400F501740868
:10387400F0007508F10008007008BF3EF200FF3048
:10388400713DF300003073021A3003197202031CF5
:103894004C2C4E2C01304F2C0030F400F5017408F0
:1038A400F0007508F10008004001AA00662C2A08FF
:1038B40086000130870001089E312D269C3101309D
:1038C4004001A9002908AA072A08860001308700B8
:1038D4000108031D6E2C6F2C592C0800F400740889
:1038E400F2007208F3007A2C0130F2007208F40737
:1038F40074088600023087000108031D822C832C83
:10390400762C73087402F000F101F01BF103080037
:10391400F101F10A4201BC18902C912CA42C3C1109
:10392400FF30F0007008B6009A31A2229C319A311F
:10393400A8229C319A31A5229C3142013B08F00017
:103944007008F10071080800F401F501701CAB2C3B
:10395400AC2CB02C7208F4077308F53D0130F23535
:10396400F30D890BB12C0130F136F00C890BB62C18
:1039740070087104031DBF2CC02CA82C7508F1001D
:103984007408F000080080304001DF066308F3008B
:103994006208F2006108F1006008F0005F08F700B7
:1039A4005E08F6005D08F5005C08F400883190209C
:1039B4009C3173084001DF007208DE007108DD00ED
:1039C4007008DC000800F401F40A20307006710469
:1039D4000319ED2CEE2CFE2C7008F73EF200FF309C
:1039E400713DF30000307302053003197202031CA9
:1039F400FC2CFD2CFE2CF4017408F200F301720877
:103A0400F0007308F1000800F7007108F500700871
:103A1400F4007708F2007208F60076088600023097
:103A24008700F60A7508F3007408F200F40A031913
:103A3400F50A72088400730885000008C03F8908ED
:103A4400031D252D262D0F2D0800083042019F004F
:103A540090309D0024309E0044309B009C01003037
:103A6400F0000030F1009A31FA229D310030F0006C
:103A74000030F1009B3100239D310030F000003014
:103A8400F1009A31F4229D314201C701080040013E
:103A9400A300A401A40A4201BC18512D522D692D82
:103AA400BC144001A40123080319592D5A2D5E2D7D
:103AB4004201BA01BA0A632D0230FD007D084201B9
:103AC400BA009A31AB229D319B316A239D3140016A
:103AD40024080800F800F401F5017008F200F3016D
:103AE4007208F6007308F700781C792D7A2D7E2D64
:103AF4007608F4077708F53D0130F635F70D890BA4
:103B04007F2D0310F80C7808031D892D8A2D762D3E
:103B14007508F1007408F00008007608BF3EF8004C
:103B2400FF30773DF900003079021A30031978022A
:103B3400031C9D2D9F2D0130A02D0030FA00FB01A8
:103B44007A08FC007B08FD007C087D040319AB2D7A
:103B5400AC2DB32D20307604F60000307704F70046
:103B6400B32D080048346F34643465343D3458341C
:103B74005834583458345834583458345834003439
:103B840046347234653471343D34583458345834BE
:103B940058345834583458345834003448346F3412
:103BA40064346F34203454346534733474340034DE
:103BB4004001A300A101A201F22D2008F900FA019D
:103BC4007908F0007A08F1007808FB007B08F2001D
:103BD40091311E219D3101304001A1070030A23DE9
:103BE40021082307F90079088600023087000108BC
:103BF400FA007A08A0002008031D012E022EDF2DF2
:103C04000800F400700871040319092E0A2E1D2EF1
:103C14007435203E8600013087007008C03F71086B
:103C2400C13F7208F30074082C3E860001308700FF
:103C3400730881002C2E7435203E860001308700E5
:103C44009B30C03F1A30C13F74082C3E86000130BF
:103C54008700810108004001A6004030A500250826
:103C6400A7002608A5002508A8003E309F310D278F
:103C74009E31003A03193F2E402E372E0230F000B9
:103C84000030F10027309B3192239E31883100208F
:103C94009E319C318A249E31013A0319522E532EAF
:103CA4004B2E5030890B542E08004201E600603040
:103CB4004101EF006F084201E70066084101EF008F
:103CC4006F084201E800E901EA01EB01EC015F0839
:103CD4004101EB0042015E084101EA006730EF0058
:103CE4006F08EC006830903103209E31420169086E
:103CF40066074101EF006F088600013087008101EB
:103D0400080042013C100230FA007A08BB00922EEF
:103D14009A31D6229E31AF2E9A31DB229E31AF2EBC
:103D24002E08FA007A08F9000430203E860001309B
:103D34008700413F8A00403F0A009E31FB00FC019E
:103D44007C08003A0319A72E8E2E7B08023A031929
:103D54008A2E013A03198A2E8E2E08009A31A22245
:103D64009E3142013C1CB72EB82EC62E9B31062331
:103D74009E31003A0319BF2EC02EC62E0F304001CB
:103D8400A00020084201BA0042013A084001A00004
:103D9400A101A035A10D383020078400A030213DB9
:103DA4008500013F8A00003F0A009E314001A200C5
:103DB40022084201BA0008004201BC15EE2E9A31D5
:103DC400D6229E310C2F903100209E3103300C2FCF
:103DD4009A31DB229E310C2F2C08FA007A08F90064
:103DE40021088A0020080A009E31FB00FC017C089F
:103DF400003A0319FE2EEA2E7B08013A0319EA2E33
:103E0400033A0319E12E013A0319E12E073A031983
:103E1400E52EEA2E0800F100F201F20A42013C19F3
:103E2400142F152F452F7108F0007008B600BC1030
:103E34003C153C100E30F0007008BA00F430B400A9
:103E44000130B500BC159B30A0001A30A100AC01B4
:103E54009B30A2001A30A300AD019B30A4001A309D
:103E6400A500AE019B30A6001A30A700AF019D301B
:103E7400A8001A30A900B0019A31A2229F319B31C7
:103E840077239F31F20172080800400196019701DF
:103E94009801FF309100FF3092009F3093005C3016
:103EA4007E01CE00F930C300FF30B800E501C40143
:103EB400B901CF01BA01C501D001FF30BB00FF3009
:103EC400C600FF30D100FF30BC00FF30C700FF3018
:103ED400D200E80117307D01CB000A30C90016304A
:103EE4007E01990010307D01A90017307E019A00EF
:103EF40011307D01AA0010307E01A60009307D0139
:103F0400C80008004001A800A6012808A50025084B
:103F1400A7003E309F310D279F31003A0319932F9C
:103F2400942F8B2F0230F0000030F10026309B31AB
:103F340092239F31883100209F319C318A249F3104
:103F4400013A0319A62FA72F9F2F40012803031915
:103F5400AC2FAD2FB32F02302806031DB22FB32F81
:103F6400BD2F15304001A500C630890BB72FA50B16
:103F7400B72F0000C02F5030890BBE2F0800073028
:103F84004001AA001730A9006A30890BC72FA90B7A
:103F9400C72FAA0BC72F000038309F3184279F31C9
:103FA40039309F3184279F3114309F3184279F31CA
:103FB40070309F3184279F315F309F3184279F3138
:103FC4006B309F3184279F310D304001AA002D3082
:103FD400A900D730890BEC2FA90BEC2FAA0BEC2FDF
:103FE400003238309F3184279F310C309F31842731
:103FF4009F3101309F3184279F3108000034003401
:1040040010340034023400341034003404340034E6
:1040140010340034063400341034003407340034CF
:1040240010340034073400340834003407340034C6
:104034001834003409340034103400340B340034A0
:10404400103400340D340034023400340D340034A0
:10405400123400340D3400341A3400340D34003476
:104064001E3400340F34003410340034C7341A348E
:1040740047341B342D341B34743411343734103426
:104084001E341B34DE341E34CC341A34D1341A3486
:10409400D6341A34DB341A34E0341A34E5341A349E
:1040A400EA341A34EF341A3483341E3448346F3407
:1040B40064346F343D3425342B342E343334663435
:1040C400203473342F346434003446347234653409
:1040D40071343D3425342E343434663420344B3436
:1040E40048347A34003449344E34463400344E343F
:1040F40041344E34003469346E34663400346E34E2
:0C41040061346E3400346C3466340034D6
:020000040001F9
:0A000E00AA3FFF3F9F3FFF1FFF3F87
:00000001FF
